{
  "_format": "hh-sol-artifact-1",
  "contractName": "PredictionMarket",
  "sourceName": "contracts/PredictionMarket.sol",
  "abi": [
    {
      "inputs": [],
      "stateMutability": "nonpayable",
      "type": "constructor"
    },
    {
      "anonymous": false,
      "inputs": [
        {
          "indexed": true,
          "internalType": "address",
          "name": "aggregator",
          "type": "address"
        }
      ],
      "name": "AggregatorRegistered",
      "type": "event"
    },
    {
      "anonymous": false,
      "inputs": [
        {
          "indexed": true,
          "internalType": "address",
          "name": "user",
          "type": "address"
        },
        {
          "indexed": true,
          "internalType": "address",
          "name": "aggregator",
          "type": "address"
        },
        {
          "indexed": false,
          "internalType": "uint256",
          "name": "amount",
          "type": "uint256"
        }
      ],
      "name": "PredictionPlaced",
      "type": "event"
    },
    {
      "inputs": [
        {
          "internalType": "address",
          "name": "aggregator",
          "type": "address"
        }
      ],
      "name": "isAggregatorRegistered",
      "outputs": [
        {
          "internalType": "bool",
          "name": "",
          "type": "bool"
        }
      ],
      "stateMutability": "view",
      "type": "function"
    },
    {
      "inputs": [],
      "name": "owner",
      "outputs": [
        {
          "internalType": "address",
          "name": "",
          "type": "address"
        }
      ],
      "stateMutability": "view",
      "type": "function"
    },
    {
      "inputs": [
        {
          "internalType": "address",
          "name": "aggregator",
          "type": "address"
        },
        {
          "internalType": "uint8",
          "name": "predictedOutcome",
          "type": "uint8"
        }
      ],
      "name": "placePrediction",
      "outputs": [],
      "stateMutability": "payable",
      "type": "function"
    },
    {
      "inputs": [
        {
          "internalType": "address",
          "name": "aggregator",
          "type": "address"
        }
      ],
      "name": "registerAggregator",
      "outputs": [],
      "stateMutability": "nonpayable",
      "type": "function"
    },
    {
      "inputs": [
        {
          "internalType": "address",
          "name": "",
          "type": "address"
        }
      ],
      "name": "registeredAggregators",
      "outputs": [
        {
          "internalType": "bool",
          "name": "",
          "type": "bool"
        }
      ],
      "stateMutability": "view",
      "type": "function"
    }
  ],
  "bytecode": "0x608060405234801561001057600080fd5b50600080546001600160a01b03191633179055610557806100326000396000f3fe60806040526004361061004a5760003560e01c80633ab121911461004f57806376c610461461006457806386d5ccd0146100a95780638da5cb5b146100c9578063b299da0e14610101575b600080fd5b61006261005d366004610493565b61013a565b005b34801561007057600080fd5b5061009461007f3660046104d0565b60016020526000908152604090205460ff1681565b60405190151581526020015b60405180910390f35b3480156100b557600080fd5b506100626100c43660046104d0565b61031a565b3480156100d557600080fd5b506000546100e9906001600160a01b031681565b6040516001600160a01b0390911681526020016100a0565b34801561010d57600080fd5b5061009461011c3660046104d0565b6001600160a01b031660009081526001602052604090205460ff1690565b6001600160a01b03821660009081526001602052604090205460ff166101a75760405162461bcd60e51b815260206004820152601960248201527f41676772656761746f72206e6f7420726567697374657265640000000000000060448201526064015b60405180910390fd5b600034116101f75760405162461bcd60e51b815260206004820152601d60248201527f4d7573742073656e6420424e4220776974682070726564696374696f6e000000604482015260640161019e565b6040513481526001600160a01b0383169033907f599a155107b4491161db4b9ce42d972245e93da75df609fed27314e0aea4e8669060200160405180910390a360405160ff821660248201526000906001600160a01b03841690349060440160408051601f198184030181529181526020820180516001600160e01b03166310c11a1160e21b1790525161028b91906104f2565b60006040518083038185875af1925050503d80600081146102c8576040519150601f19603f3d011682016040523d82523d6000602084013e6102cd565b606091505b50509050806103155760405162461bcd60e51b815260206004820152601460248201527310995d081c1b1858d95b595b9d0819985a5b195960621b604482015260640161019e565b505050565b6000546001600160a01b031633146103745760405162461bcd60e51b815260206004820152601860248201527f4f6e6c79206f776e65722063616e2063616c6c20746869730000000000000000604482015260640161019e565b6001600160a01b0381166103ca5760405162461bcd60e51b815260206004820152601a60248201527f496e76616c69642061676772656761746f722061646472657373000000000000604482015260640161019e565b6001600160a01b03811660009081526001602052604090205460ff16156104285760405162461bcd60e51b8152602060048201526012602482015271105b1c9958591e481c9959da5cdd195c995960721b604482015260640161019e565b6001600160a01b0381166000818152600160208190526040808320805460ff1916909217909155517f8bbcf4f6c27a11d38a8d4c2c983c067881f0bcf15dab0aad7914f28f94a1ce899190a250565b80356001600160a01b038116811461048e57600080fd5b919050565b600080604083850312156104a657600080fd5b6104af83610477565b9150602083013560ff811681146104c557600080fd5b809150509250929050565b6000602082840312156104e257600080fd5b6104eb82610477565b9392505050565b6000825160005b8181101561051357602081860181015185830152016104f9565b50600092019182525091905056fea2646970667358221220ba7b7dfb99b0a67e889ff186b0c3e18bf6214934bc88507d7e7fdb0a1c03022d64736f6c63430008140033",
  "linkReferences": {},
  "deployedLinkReferences": {}
}