{
  "_format": "hh-sol-artifact-1",
  "contractName": "GameOutcomeAggregator",
  "sourceName": "contracts/GameOutcomeAggregator.sol",
  "abi": [
    {
      "inputs": [],
      "stateMutability": "nonpayable",
      "type": "constructor"
    },
    {
      "anonymous": false,
      "inputs": [
        {
          "indexed": true,
          "internalType": "address",
          "name": "user",
          "type": "address"
        },
        {
          "indexed": false,
          "internalType": "uint8",
          "name": "outcome",
          "type": "uint8"
        },
        {
          "indexed": false,
          "internalType": "uint256",
          "name": "amount",
          "type": "uint256"
        }
      ],
      "name": "BetPlaced",
      "type": "event"
    },
    {
      "anonymous": false,
      "inputs": [
        {
          "indexed": true,
          "internalType": "address",
          "name": "user",
          "type": "address"
        },
        {
          "indexed": false,
          "internalType": "uint256",
          "name": "amount",
          "type": "uint256"
        }
      ],
      "name": "Claimed",
      "type": "event"
    },
    {
      "anonymous": false,
      "inputs": [
        {
          "indexed": false,
          "internalType": "uint8",
          "name": "outcome",
          "type": "uint8"
        }
      ],
      "name": "OutcomeFinalized",
      "type": "event"
    },
    {
      "inputs": [],
      "name": "claim",
      "outputs": [],
      "stateMutability": "nonpayable",
      "type": "function"
    },
    {
      "inputs": [],
      "name": "finalOutcome",
      "outputs": [
        {
          "internalType": "uint8",
          "name": "",
          "type": "uint8"
        }
      ],
      "stateMutability": "view",
      "type": "function"
    },
    {
      "inputs": [
        {
          "internalType": "uint8",
          "name": "_outcome",
          "type": "uint8"
        }
      ],
      "name": "finalize",
      "outputs": [],
      "stateMutability": "nonpayable",
      "type": "function"
    },
    {
      "inputs": [],
      "name": "isFinalized",
      "outputs": [
        {
          "internalType": "bool",
          "name": "",
          "type": "bool"
        }
      ],
      "stateMutability": "view",
      "type": "function"
    },
    {
      "inputs": [],
      "name": "oracle",
      "outputs": [
        {
          "internalType": "address",
          "name": "",
          "type": "address"
        }
      ],
      "stateMutability": "view",
      "type": "function"
    },
    {
      "inputs": [
        {
          "internalType": "uint8",
          "name": "",
          "type": "uint8"
        }
      ],
      "name": "outcomeTotals",
      "outputs": [
        {
          "internalType": "uint256",
          "name": "",
          "type": "uint256"
        }
      ],
      "stateMutability": "view",
      "type": "function"
    },
    {
      "inputs": [
        {
          "internalType": "uint8",
          "name": "_outcome",
          "type": "uint8"
        }
      ],
      "name": "placeBet",
      "outputs": [],
      "stateMutability": "payable",
      "type": "function"
    },
    {
      "inputs": [
        {
          "internalType": "address",
          "name": "_newOracle",
          "type": "address"
        }
      ],
      "name": "setOracle",
      "outputs": [],
      "stateMutability": "nonpayable",
      "type": "function"
    },
    {
      "inputs": [
        {
          "internalType": "address",
          "name": "",
          "type": "address"
        },
        {
          "internalType": "uint8",
          "name": "",
          "type": "uint8"
        }
      ],
      "name": "userBets",
      "outputs": [
        {
          "internalType": "uint256",
          "name": "",
          "type": "uint256"
        }
      ],
      "stateMutability": "view",
      "type": "function"
    }
  ],
  "bytecode": "0x608060405234801561001057600080fd5b506000805460ff60a81b193316600161ff0160a01b03199091161790556108698061003c6000396000f3fe6080604052600436106100865760003560e01c80637adbf973116100595780637adbf9731461010d5780637dc0d1d01461012d57806385523d22146101655780638d4e4083146101ab578063fe7c00c7146101dc57600080fd5b8063404002a61461008b57806343046844146100c35780634aa81f21146100d85780634e71d92d146100f8575b600080fd5b34801561009757600080fd5b506000546100ac90600160a01b900460ff1681565b60405160ff90911681526020015b60405180910390f35b6100d66100d1366004610744565b610209565b005b3480156100e457600080fd5b506100d66100f3366004610744565b61038b565b34801561010457600080fd5b506100d66104ec565b34801561011957600080fd5b506100d661012836600461077d565b6106bb565b34801561013957600080fd5b5060005461014d906001600160a01b031681565b6040516001600160a01b0390911681526020016100ba565b34801561017157600080fd5b5061019d610180366004610798565b600260209081526000928352604080842090915290825290205481565b6040519081526020016100ba565b3480156101b757600080fd5b506000546101cc90600160a81b900460ff1681565b60405190151581526020016100ba565b3480156101e857600080fd5b5061019d6101f7366004610744565b60016020526000908152604090205481565b600054600160a81b900460ff161561025c5760405162461bcd60e51b815260206004820152601160248201527010995d1d1a5b99c81a5cc818db1bdcd959607a1b60448201526064015b60405180910390fd5b60018160ff1610158015610274575060038160ff1611155b6102b25760405162461bcd60e51b815260206004820152600f60248201526e496e76616c6964206f7574636f6d6560881b6044820152606401610253565b600034116102f25760405162461bcd60e51b815260206004820152600d60248201526c26bab9ba1039b2b7321021272160991b6044820152606401610253565b33600090815260026020908152604080832060ff851684529091528120805434929061031f9084906107e1565b909155505060ff8116600090815260016020526040812080543492906103469084906107e1565b90915550506040805160ff8316815234602082015233917f9f6b4cced64244a64465098f682029975b1614400b96bc6bd12c668083719166910160405180910390a250565b6000546001600160a01b031633146103dc5760405162461bcd60e51b815260206004820152601460248201527313db9b1e481bdc9858db194818d85b8818d85b1b60621b6044820152606401610253565b600054600160a81b900460ff161561042a5760405162461bcd60e51b8152602060048201526011602482015270105b1c9958591e48199a5b985b1a5e9959607a1b6044820152606401610253565b60018160ff1610158015610442575060038160ff1611155b6104805760405162461bcd60e51b815260206004820152600f60248201526e496e76616c6964206f7574636f6d6560881b6044820152606401610253565b6000805460ff60a81b1960ff8416600160a01b021661ffff60a01b1990911617600160a81b1790556040517f8384eabca7e788efd1e412cf26bd9faf55ad7da8ff308d9d39cfdd39c75da05b906104e190839060ff91909116815260200190565b60405180910390a150565b600054600160a81b900460ff166105395760405162461bcd60e51b8152602060048201526011602482015270139bdd08199a5b985b1a5e9959081e595d607a1b6044820152606401610253565b3360009081526002602090815260408083208354600160a01b900460ff1684529091529020548061059d5760405162461bcd60e51b815260206004820152600e60248201526d139bc81dda5b9b9a5b99c818995d60921b6044820152606401610253565b60008054600160a01b900460ff16815260016020526040812054904790826105c583866107fa565b6105cf9190610811565b3360008181526002602090815260408083208354600160a01b900460ff168452909152808220829055519293509183908381818185875af1925050503d8060008114610637576040519150601f19603f3d011682016040523d82523d6000602084013e61063c565b606091505b505090508061067f5760405162461bcd60e51b815260206004820152600f60248201526e151c985b9cd9995c8819985a5b1959608a1b6044820152606401610253565b60405182815233907fd8138f8a3f377c5259ca548e70e4c2de94f129f5a11036a15b69513cba2b426a9060200160405180910390a25050505050565b6000546001600160a01b0316331461070c5760405162461bcd60e51b815260206004820152601460248201527313db9b1e481bdc9858db194818d85b8818d85b1b60621b6044820152606401610253565b600080546001600160a01b0319166001600160a01b0392909216919091179055565b803560ff8116811461073f57600080fd5b919050565b60006020828403121561075657600080fd5b61075f8261072e565b9392505050565b80356001600160a01b038116811461073f57600080fd5b60006020828403121561078f57600080fd5b61075f82610766565b600080604083850312156107ab57600080fd5b6107b483610766565b91506107c26020840161072e565b90509250929050565b634e487b7160e01b600052601160045260246000fd5b808201808211156107f4576107f46107cb565b92915050565b80820281158282048414176107f4576107f46107cb565b60008261082e57634e487b7160e01b600052601260045260246000fd5b50049056fea26469706673582212203b18823c3be9327c50b8efe726c1d7555ff7db24a5d8659f3836ba0dda758fe764736f6c63430008140033",
  "linkReferences": {},
  "deployedLinkReferences": {}
}